:020000040800F2
:10000000D00600202902000809100008011000088D
:1000100005100008D5030008C11100080000000009
:10002000000000000000000000000000F5100008C3
:10003000D9030008000000000D100008F9100008A6
:10004000430200084302000843020008430200087C
:10005000430200084302000843020008430200086C
:10006000430200084302000843020008430200085C
:10007000430200084302000843020008430200084C
:10008000430200084302000843020008430200083C
:10009000430200084302000843020008430200082C
:1000A000430200084302000843020008430200081C
:1000B000430200084302000843020008430200080C
:1000C00043020008430200084302000843020008FC
:1000D00043020008430200084302000843020008EC
:1000E00043020008430200084302000843020008DC
:1000F00043020008430200084302000843020008CC
:1001000043020008430200084302000843020008BB
:1001100043020008430200084302000843020008AB
:10012000430200084302000843020008430200089B
:10013000430200084302000843020008430200088B
:10014000430200084302000843020008430200087B
:10015000430200084302000843020008430200086B
:10016000430200084302000843020008430200085B
:100170004302000843020008430200080000000098
:10018000430200084302000800F002F800F03CF8C7
:100190000AA090E8000C82448344AAF10107DA45E2
:1001A00001D100F031F8AFF2090EBAE80F0013F0F8
:1001B000010F18BFFB1A43F001031847201100007C
:1001C00040110000103A24BF78C878C1FAD852070D
:1001D00024BF30C830C144BF04680C6070470000C1
:1001E0000023002400250026103A28BF78C1FBD840
:1001F000520728BF30C148BF0B6070471FB501F0E0
:1002000058F81FBD10B510BD00F0A9F81146FFF752
:10021000F5FF00F0D7FF00F0C7F803B4FFF7F2FFD7
:1002200003BC00F0CFF800000948804709480047A8
:10023000FEE7FEE7FEE7FEE7FEE7FEE7FEE7FEE796
:10024000FEE7FEE704480549054A064B70470000F3
:10025000AD11000889010008D0000020D006002060
:10026000D0020020D002002053EA020C00F0698086
:100270002DE9F04B4FF00006002B1FBFB3FA83F5BA
:1002800003FA05F424FA05F65E4012BF1643B2FAEB
:1002900082F502FA05F4C5F120051EBF22FA05FC1D
:1002A00044EA0C04203556EA044C4FEA144418BFC3
:1002B000641C4FF000084FF00009904271EB030CF2
:1002C00039D3002919BFB1FA81F701FA07F6B0FA5C
:1002D00080F700FA07F6C7F120071EBF20FA07FCD7
:1002E00046EA0C062037B6FBF4FCA7EB0507103FE7
:1002F00007F01F0BCBF120062CFA06F60CFA0BFBCD
:1003000044BFB3460026202FA4BF5E464FF0000B2B
:100310005BEA060C08BF4FF0010B19EB0B0948EB29
:100320000608ABFB027C06FB02CC0BFB03CCC01B1C
:1003300071EB0C01C1E70B46024641464846BDE859
:10034000F08B13B5084318BF4FF0FF300146AFF3F1
:100350000080BDE81C407047704770477047754685
:1003600000F02CF8AE4605006946534620F0070021
:10037000854618B020B5FFF765FFBDE820404FF077
:1003800000064FF000074FF000084FF0000BAC469E
:10039000ACE8C009ACE8C009ACE8C009ACE8C009E9
:1003A00021F007018D46704710B50446AFF3008079
:1003B0002046BDE81040FFF730BF000000487047FE
:1003C0001000002001491820ABBEFEE72600020005
:1003D00070470000FEE70000704700002DE9F04F75
:1003E00082B000F13E4241F6004502F1FF77C4F2CF
:1003F0000205082243F6004E4FEAB726A84208BF7E
:100400000722C4F2010E072E38BF4FEAB72201259A
:10041000002600274FF00008009208E008F10108CC
:100420000437B8F1100F06F1020600F0A7800C683F
:1004300005FA08F914EA090FF0D0D1F804B0032244
:100440000BF0030CACF10104B240012C6FEA020A7C
:1004500010D88268CC6802EA0A02B4402243826063
:100460004268CBF3001422EA090204FA08F422439A
:10047000426005E0BCF1030F02D14FF0030C20E015
:10048000C2688C6802EA0A02B4402243BCF1020F3F
:10049000C26016D16FF0030202EA58020244D2F899
:1004A00020C007F01C050F230C69AB402CEA0303A6
:1004B00004FA05F52B431362D1F804B001250BF0C3
:1004C000030C02680CFA06F302EA0A021A431BF450
:1004D000403F0260A2D0002243F644030192C4F2DE
:1004E00002031A684FF6084C42F480421A601A68F8
:1004F000CFF6FF7C02F480420192019A28F00302B9
:10050000724452F80C3007F00C050F24AC40A343A2
:10051000009C04FA05F52B4342F80C30DEF8082065
:100520004B6842EA090543F60C4CDC0258BF22EA4C
:100530000905CEF80850C4F2010CDCF800209C023A
:1005400042EA090558BF22EA0905CCF80050DEF856
:1005500004209C0342EA090558BF22EA0905CEF8A7
:100560000450DEF80020DB0342EA090558BF22EA06
:100570000905CEF80050012550E700BF02B0BDE8E4
:10058000F08F0000002A08BF090481617047000055
:1005900040F2C800C2F200000068704740F200005C
:1005A00040F2C801C2F20000C2F2000100780A68FD
:1005B000104408607047000080B543F60040C4F264
:1005C0000200016841F400710160016841F480613A
:1005D0000160016841F480710160032000F074F84B
:1005E0000F2000F005F800F027F8002080BD000083
:1005F00070B540F20006C2F2000640F208013278FF
:10060000C2F200014FF47A730968B3FBF2F20446B8
:10061000B1FBF2F1084600F0DDFC0F2C4FF00105B4
:1006200008D838B94FF0FF3021460022002500F0ED
:100630001FF87460284670BD82B0002043F6400168
:100640000190C4F202014A6842F480424A604A685A
:1006500002F480420192019A0090086840F08050B4
:100660000860086800F080500090009802B0704761
:1006700010B54EF60C5CCEF2000CDCF80030C3F383
:10068000022E8EF00704042C28BF0424BEF10303BD
:100690004FF0FF3E0EFA04F438BF0023A143994007
:1006A0000EFA03F39A43114300F00F0200F1604386
:1006B0000901043A03F564436244002848BF02F18B
:1006C0000C03197010BD00004EF60C51CEF2000163
:1006D0000A684FF6FF031A4060F30A2242F0806076
:1006E00040F0FD70086070472DE9F041002800F0EF
:1006F0008B8043F60808C4F202080446D8F8F803D1
:100700000D4600F00700884207D288F8F853D8F861
:10071000F80300F00700A84276D12068810717D5BA
:10072000410705D5D8F8001041F4E051C8F8001091
:10073000010705D5D8F8001041F46041C8F8001051
:10074000D8F80010A26821F0F0011143C8F8001099
:10075000C0073FD1D8F8F80300F00700A84207D936
:1007600088F8F853D8F8F80300F00700A8424BD1F6
:100770002068410707D5D8F80010E26821F4E0515D
:100780001143C8F80010000708D5D8F80000216907
:1007900020F4604040EAC100C8F8000000F054F8BE
:1007A000D8F8001041F2CC22C1F30311C0F60002C8
:1007B000515C40F2080220FA01F140F20400C2F25A
:1007C00000000068C2F200021160FFF711FF002074
:1007D000BDE8F0816068811E022907D258F8081C24
:1007E00089015CBF0120BDE8F08111E0012807D13B
:1007F00058F8081C89035CBF0120BDE8F08107E0C0
:1008000058F8081C890703D40120BDE8F08100BF17
:10081000D8F8001021F003010843C8F80000FFF7E2
:10082000B7FE064641F28837D8F80000616800F04C
:100830000C00B0EB810F8DD0FFF7AAFE801BB842F1
:10084000F2D90320BDE8F08110B543F60404C4F2E8
:100850000204606800F00C0142F200400829C0F276
:10086000F40007D0042918BF10BD41F20020C0F2E7
:100870007A0010BD216801F03F0221682368490217
:10088000C3F3881106D4A1FB00010023FFF7ECFCA1
:1008900007E000BF41F20020C0F27A004843B0FBFD
:1008A000F2F021680222C1F3014102EB4101B0FBE9
:1008B000F1F010BD2DE9F04182B0002868D0044667
:1008C000007843F60006C007C4F202060BD0B068F9
:1008D00000F00C00042840F09F803068800302D5AF
:1008E0006068002854D0207880071AD5B06810F0CE
:1008F0000C0F09D0B06800F00C00082840F0A6806A
:100900007068400200F1A2803068800702D5E0687C
:1009100001283DD13068216920F0F80040EAC1008B
:1009200030602078000737D4207840074CD4A56980
:1009300055B3B06800F00C00082840F0BB80012DD2
:1009400026D07068E16900F480028A4220D1216AD1
:1009500000F03F028A421BD147F6C071626A014033
:10096000B1EB821F14D1A16A4FF6FF73C9039943FB
:1009700000F44032A1F580318A4209D1E16A00F0E9
:100980007060B0EB016F03D1002002B0BDE8F081D0
:10099000012002B0BDE8F0816069002840F200004B
:1009A000C4F2472076D00121C0F8801EFFF7F0FD89
:1009B000054600BF706F8007B6D4FFF7E9FD401B06
:1009C0000228F7D9DDE000BF306C10F080580AD162
:1009D00000200190306C40F080503064306C00F0AA
:1009E00080500190019847F20007C4F20007386870
:1009F000C00541D4386840F480703860FFF7C8FD06
:100A0000054600BF3868C00536D4FFF7C1FD401B5E
:100A10000228F7D9B5E000BFB06800F00C00082844
:100A200003D1706840023FF558AF6068B0F5803F71
:100A300007D0B0F5A02F40F08D80306840F48020C2
:100A40003060306840F4803030608DE0E06800282D
:100A500052D00020C4F2472001210160FFF798FD29
:100A6000054600BF306880073FF554AFFFF790FDA3
:100A7000401B0228F6D984E0A068012805D005288B
:100A80004ED1306F40F004003067306F40F001000D
:100A900030674FE00021C0F8801EFFF779FD054662
:100AA000706F80077FF540AFFFF772FD401B022893
:100AB000F6D966E00027C4F2472700203866FFF722
:100AC00067FD022D05460BD1306880015ED5FFF72A
:100AD0005FFD401B02284FF00300F5D955E700BF2A
:100AE000306880017FF550AFFFF752FD401B0228B0
:100AF0004FF00300F4D948E70020C4F2472000215A
:100B00000160FFF745FD0546306880077FF509AFB6
:100B1000FFF73EFD401B02284FF00300F4D934E7F5
:100B2000316F002821F001013167316F21F004019C
:100B300031674DD0FFF72CFD054641F2883700BFE5
:100B4000306F800756D4FFF723FD401BB842F7D91A
:100B500017E000BF3168002821F48031316031682E
:100B600021F4802131604FD0FFF712FD054600BF10
:100B7000306880033FF5B7AEFFF70AFD401B6428DD
:100B8000F6D9032002B0BDE8F08100BF04F11C05D6
:100B90002FCD084340EA8210D9034FF6FF729143EC
:100BA000A1F5803140EA0560084370600120386695
:100BB000FFF7EEFC044600BF306880013FF5E4AE6D
:100BC000FFF7E6FC001B02284FF00300F4D9DCE637
:100BD000FFF7DEFC054641F2883700BF306F800723
:100BE00008D5FFF7D5FC401BB8424FF00300F5D9FC
:100BF000CBE600BFB8F1000F7FF499AE306C20F067
:100C00008050306493E600BFFFF7C2FC054600BF8A
:100C1000306880037FF567AEFFF7BAFC401B64289D
:100C20004FF00300F4D9B0E670B538B10446406A1D
:100C300030B10020206104F1140007E0012070BDF4
:100C40006068B0F5827F03D004F11C0000210160D0
:100C50000026A66294F8510020B9204684F850601E
:100C600000F03CF8022084F8510094E80F0001F4F1
:100C70008271056802F4044225F0400505601144C4
:100C800003F400622369114403F002026369114412
:100C900003F00102A369E569114403F400721144F1
:100CA00005F03802256A114405F08002A56A114357
:100CB00005F4005211430160626A042101EA134104
:100CC00002F0100211444160C16921F40061C16168
:100CD0000120666584F85100304670BD2DE9F0436F
:100CE00085B0006843F60005C4F20005A84203D0B1
:100CF00005B0BDE8F08300BF002643F63000009643
:100D0000C4F2020001696C4641F48041016101694D
:100D10004FF0020801F480410091009900960168AB
:100D20004FF0030941F0040101600168052701F05B
:100D30000401009100990096016841F002010160F0
:100D40000068214600F00200009000980820009002
:100D500005F5E830CDE90186CDF80C900497FFF752
:100D60003DFB4FF48060CDE9000805F5E6302146F3
:100D7000CDE902690497FFF731FB05B0BDE8F083C8
:100D80002DE9F04383B0044690F85000012803D1C8
:100D9000022003B0BDE8F0834FF001091D4616465E
:100DA0000F4684F85090FFF7F3FB94F85110012997
:100DB00044D18046002F4FF0010018BF002E00F0F4
:100DC000D6800320002184F8510061652763A68640
:100DD000E686A163A187E187A0682164B0F5004F92
:100DE0002068616407D1016821F040010160016859
:100DF00041F4804101600168490603D4016841F073
:100E0000400101606168731EE268B1FA81F1B3FAD2
:100E100083F349095B09B2F5006F41EA03013DD153
:100E200031B137F8021BC1602763E08E0138E086DC
:100E3000E08E00286CD0681C0DD11EE0022096E0E8
:100E4000216B31F8022BC2602163E08E0138E0860D
:100E5000E08E00285CD0206881688907F0D4FFF715
:100E600097FBA0EB0800A842F2D303207FE000BF6D
:100E7000FFF78EFBE08E00284AD020688168890742
:100E8000F6D5216B31F8022BC2602163E08E013868
:100E9000E086E08E0028F0D13AE000BF39B1397821
:100EA0000173206B01302063E08E0138E086E08E14
:100EB00070B3681C0BD11BE0216B09780173206BA8
:100EC00001302063E08E0138E086E08E00B32068B8
:100ED00081688907F0D4FFF75BFBA0EB0800A8420C
:100EE000F3D3032043E000BFFFF752FBE08E78B15D
:100EF000206881688907F7D5216B09780173206B19
:100F000001302063E08E0138E086E08E0028EFD1CA
:100F100040F20800C2F20000006849F68171C1F297
:100F20005E61A0FB0101480D4FF47A7148430290C5
:100F30006068B0F5827F23D1204680212A4643464F
:100F400000F066F828B1606D40F020006065202058
:100F50006065A06838B9002001902068C1680191DF
:100F6000806801900198606D002818BF0120002161
:100F700084F8519084F8501003B0BDE8F08300BFAE
:100F800002980028E5D00298013802902068806815
:100F90000006DED502980028DBD0029801380290C6
:100FA000206880680006D4D502980028D1D0029825
:100FB00001380290206880680006CAD5029800288F
:100FC000C7D0029801380290206880680006D7D404
:100FD000BFE70000411E0020B0EB116F1CBF0120D5
:100FE00070474EF21002CEF2000251604EF62351CD
:100FF000CEF20001F0230B70072190601160704762
:10100000FEE70000FEE70000FEE70000704700007A
:101010002DE9F04182B01E4690460D460446FFF78A
:10102000B7FA301A00EB0807FFF7B2FA40F20801EE
:10103000C2F200010968C1F3CB3179430191216803
:101040008A682A40AA4227D1064618F101001FD01B
:10105000FFF79EFA801BB84222D20198019900281E
:10106000A1F1010101912168896808BF074601EAE1
:101070000500A842ECD00FE088682840A8420BD1B8
:1010800088682840A84207D188682840A84203D130
:1010900088682840A842EFD0002002B0BDE8F08167
:1010A000D4E900014268B1F5827F22F0E00242609B
:1010B0000AD1A168B1F5004F02D0B1F5806F03D11C
:1010C000016821F040010160A16AB1F5005F07D11C
:1010D000016821F400510160016841F40051016090
:1010E000012084F85100002084F85000032002B051
:1010F000BDE8F08170470000FFF750BAB0B592B07C
:10110000002443F64000CDE90A44CDE908440594A3
:10111000CDE90344CDE901440094C4F20200016822
:10112000022541F080510160006800F0805000907D
:10113000009847F200000094C4F20000016841F4F6
:10114000804101600068A82100F480400090009870
:10115000012006904FF4803007904FF480000D90EE
:1011600004200E90119006A80C95CDE90F15FFF7FD
:10117000A1FB28B1EFF3108072B600BFFEE700BFFD
:101180000F20CDE901054FF4A05004904FF480509A
:10119000059001A805210394FFF7A6FA20B1EFF30B
:1011A000108072B6FEE700BF12B0B0BD4EF6885098
:1011B000CEF20000016841F4700101607047000048
:1011C000FEE7000088B0FF208DF80700FFF7F4F974
:1011D000FFF794FF002543F6300007950295C4F20F
:1011E0000200016840F2004441F0800101600168A2
:1011F000C4F2020401F08001029102990295016893
:10120000012241F00401016001684FF4805601F0B1
:1012100004010291029902950168012741F002013F
:101220000160016801F002010291029902950168D2
:1012300041F00101016000684FF4805100F00100AD
:10124000029002982046FFF79DF903A92046CDE9B8
:101250000367CDE90555FFF7C1F840F27000A4F52A
:10126000E631C2F200004FF482724FF4007380E85E
:1012700026000A21C0E90355C0E90553C561C0E94C
:101280000855C0E90A51FFF7CFFC28B1EFF31080F1
:1012900072B600BFFEE700BF40F27004C2F2000465
:1012A0000DF107052046294601220A23FFF768FDB4
:1012B000F8E7F1EE100A4FF6FF71C0F2C03120EAF4
:1012C000010040F04070E1EE100A7047000000009D
:1012D00000000000010203040607080900130008CB
:1012E0000000002010000000C401000810130008D6
:1012F00010000020C0060000E0010008000000000F
:1013000001000000100000000024F40000000000B4
:040000050800018965
:00000001FF
